{
  "contractName": "BlockCertify",
  "abi": [
    {
      "inputs": [],
      "stateMutability": "nonpayable",
      "type": "constructor"
    },
    {
      "anonymous": false,
      "inputs": [
        {
          "indexed": false,
          "internalType": "string",
          "name": "prn",
          "type": "string"
        },
        {
          "indexed": false,
          "internalType": "bytes32",
          "name": "hash",
          "type": "bytes32"
        }
      ],
      "name": "DocumentUploaded",
      "type": "event"
    },
    {
      "anonymous": false,
      "inputs": [
        {
          "indexed": false,
          "internalType": "string",
          "name": "prn",
          "type": "string"
        },
        {
          "indexed": false,
          "internalType": "bool",
          "name": "status",
          "type": "bool"
        }
      ],
      "name": "DocumentVerified",
      "type": "event"
    },
    {
      "inputs": [],
      "name": "admin",
      "outputs": [
        {
          "internalType": "address",
          "name": "",
          "type": "address"
        }
      ],
      "stateMutability": "view",
      "type": "function",
      "constant": true
    },
    {
      "inputs": [
        {
          "internalType": "string",
          "name": "prn",
          "type": "string"
        },
        {
          "internalType": "bytes32",
          "name": "hash",
          "type": "bytes32"
        }
      ],
      "name": "uploadDocument",
      "outputs": [],
      "stateMutability": "nonpayable",
      "type": "function"
    },
    {
      "inputs": [
        {
          "internalType": "string",
          "name": "prn",
          "type": "string"
        },
        {
          "internalType": "bytes32",
          "name": "hash",
          "type": "bytes32"
        }
      ],
      "name": "verifyDocument",
      "outputs": [],
      "stateMutability": "nonpayable",
      "type": "function"
    },
    {
      "inputs": [
        {
          "internalType": "string",
          "name": "prn",
          "type": "string"
        }
      ],
      "name": "getVerificationStatus",
      "outputs": [
        {
          "internalType": "bool",
          "name": "",
          "type": "bool"
        }
      ],
      "stateMutability": "view",
      "type": "function",
      "constant": true
    },
    {
      "inputs": [
        {
          "internalType": "string",
          "name": "prn",
          "type": "string"
        }
      ],
      "name": "getDocumentHash",
      "outputs": [
        {
          "internalType": "bytes32",
          "name": "",
          "type": "bytes32"
        }
      ],
      "stateMutability": "view",
      "type": "function",
      "constant": true
    }
  ],
  "bytecode": "0x608060405234801561001057600080fd5b50600180546001600160a01b0319163317905561060c806100326000396000f3fe608060405234801561001057600080fd5b50600436106100575760003560e01c8063042b21671461005c57806374152d3814610085578063bb6ccd941461009a578063f851a440146100ba578063f8fc1aeb146100cf575b600080fd5b61006f61006a366004610377565b6100e2565b60405161007c9190610451565b60405180910390f35b6100986100933660046103b2565b610110565b005b6100ad6100a8366004610377565b6101c7565b60405161007c919061045c565b6100c26101ef565b60405161007c919061043d565b6100986100dd3660046103b2565b6101fe565b600080826040516100f39190610421565b9081526040519081900360200190206001015460ff169050919050565b600080836040516101219190610421565b908152604051908190036020019020805490915061015a5760405162461bcd60e51b81526004016101519061052c565b60405180910390fd5b8054821461017a5760405162461bcd60e51b8152600401610151906104fe565b6001818101805460ff1916821790556040517fcf184183f6d011925cc3545fa45d06d1ed971de8bc3d60033907db9acfb41bc4916101ba91869190610465565b60405180910390a1505050565b600080826040516101d89190610421565b908152604051908190036020019020549050919050565b6001546001600160a01b031681565b6001546001600160a01b031633146102285760405162461bcd60e51b8152600401610151906104ab565b6000826040516102389190610421565b90815260405190819003602001902054156102655760405162461bcd60e51b815260040161015190610559565b60405180604001604052808281526020016000151581525060008360405161028d9190610421565b908152604051602091819003820181208351815592909101516001909201805460ff1916921515929092179091557f8a6c9d2bbfa81b72405343ed2345f97f432b51dfbccfb5e0ad7212ed1bb9cdae906102ea9084908490610489565b60405180910390a15050565b600082601f830112610306578081fd5b813567ffffffffffffffff80821115610321576103216105c0565b604051601f8301601f191681016020018281118282101715610345576103456105c0565b60405282815284830160200186101561035c578384fd5b82602086016020830137918201602001929092529392505050565b600060208284031215610388578081fd5b813567ffffffffffffffff81111561039e578182fd5b6103aa848285016102f6565b949350505050565b600080604083850312156103c4578081fd5b823567ffffffffffffffff8111156103da578182fd5b6103e6858286016102f6565b95602094909401359450505050565b6000815180845261040d816020860160208601610590565b601f01601f19169290920160200192915050565b60008251610433818460208701610590565b9190910192915050565b6001600160a01b0391909116815260200190565b901515815260200190565b90815260200190565b60006040825261047860408301856103f5565b905082151560208301529392505050565b60006040825261049c60408301856103f5565b90508260208301529392505050565b60208082526033908201527f4e6f7420617574686f72697a65642e204f6e6c792061646d696e2063616e207060408201527232b93337b936903a3434b99030b1ba34b7b71760691b606082015260800190565b6020808252601490820152732430b9b4103237b2b9903737ba1036b0ba31b41760611b604082015260600190565b6020808252601390820152722237b1bab6b2b73a103737ba103337bab7321760691b604082015260600190565b6020808252601a908201527f446f63756d656e7420616c72656164792075706c6f616465642e000000000000604082015260600190565b60005b838110156105ab578181015183820152602001610593565b838111156105ba576000848401525b50505050565b634e487b7160e01b600052604160045260246000fdfea26469706673582212205ffc15c4d9e42c130b5e452c74792b0b82867938e5572163366e71f248070a8e64736f6c63430008000033",
  "immutableReferences": {},
  "source": "// SPDX-License-Identifier: MIT\r\npragma solidity ^0.8.0;\r\n\r\ncontract BlockCertify {\r\n    struct Document {\r\n        bytes32 hash; // Hash of the document\r\n        bool isVerified; // Verification status\r\n    }\r\n\r\n    mapping(string => Document) private documents; // Maps PRN to Document\r\n    address public admin; // Address of the admin\r\n\r\n    event DocumentUploaded(string prn, bytes32 hash);\r\n    event DocumentVerified(string prn, bool status);\r\n\r\n    // Modifier to restrict access to the admin\r\n    modifier onlyAdmin() {\r\n        require(msg.sender == admin, \"Not authorized. Only admin can perform this action.\");\r\n        _;\r\n    }\r\n\r\n    // Constructor to set the contract deployer as the admin\r\n    constructor() {\r\n        admin = msg.sender; // Set the deployer as the admin\r\n    }\r\n\r\n    // Function to upload a document\r\n    function uploadDocument(string memory prn, bytes32 hash) public onlyAdmin {\r\n        // Ensure that the document is not already uploaded\r\n        require(documents[prn].hash == 0, \"Document already uploaded.\");\r\n        \r\n        documents[prn] = Document(hash, false); // Store document\r\n        emit DocumentUploaded(prn, hash); // Emit event for upload\r\n    }\r\n\r\n    // Function to verify a document\r\n    function verifyDocument(string memory prn, bytes32 hash) public {\r\n        Document storage doc = documents[prn];\r\n\r\n        // Check if the document exists and if the hashes match\r\n        require(doc.hash != 0, \"Document not found.\");\r\n        require(doc.hash == hash, \"Hash does not match.\");\r\n\r\n        // Update verification status\r\n        doc.isVerified = true; \r\n        \r\n        // Emit verification event\r\n        emit DocumentVerified(prn, true); // Emit event for successful verification\r\n    }\r\n\r\n    // Function to get verification status\r\n    function getVerificationStatus(string memory prn) public view returns (bool) {\r\n        return documents[prn].isVerified; // Return the verification status\r\n    }\r\n\r\n    // Function to get the document hash\r\n    function getDocumentHash(string memory prn) public view returns (bytes32) {\r\n        return documents[prn].hash; // Return the document hash\r\n    }\r\n}\r\n",
  "sourcePath": "D:\\Seminar\\Blockcertify\\contracts\\Blockcertify.sol",
  "compiler": {
    "name": "solc",
    "version": "0.8.0+commit.c7dfd78e.Emscripten.clang"
  },
  "schemaVersion": "3.4.16",
  "updatedAt": "2024-10-03T06:19:39.842Z",
  "networkType": "ethereum",
  "devdoc": {
    "kind": "dev",
    "methods": {},
    "version": 1
  },
  "userdoc": {
    "kind": "user",
    "methods": {},
    "version": 1
  }
}